{
  "_format": "hh-sol-artifact-1",
  "contractName": "Skillchain",
  "sourceName": "contracts/Skillchain.sol",
  "abi": [
    {
      "inputs": [],
      "stateMutability": "nonpayable",
      "type": "constructor"
    },
    {
      "anonymous": false,
      "inputs": [
        {
          "indexed": true,
          "internalType": "uint256",
          "name": "id",
          "type": "uint256"
        },
        {
          "indexed": true,
          "internalType": "address",
          "name": "studentAddress",
          "type": "address"
        },
        {
          "indexed": false,
          "internalType": "string",
          "name": "ipfsCid",
          "type": "string"
        }
      ],
      "name": "CertificateIssued",
      "type": "event"
    },
    {
      "inputs": [
        {
          "internalType": "uint256",
          "name": "",
          "type": "uint256"
        }
      ],
      "name": "certificates",
      "outputs": [
        {
          "internalType": "uint256",
          "name": "id",
          "type": "uint256"
        },
        {
          "internalType": "string",
          "name": "title",
          "type": "string"
        },
        {
          "internalType": "string",
          "name": "description",
          "type": "string"
        },
        {
          "internalType": "string",
          "name": "ipfsCid",
          "type": "string"
        },
        {
          "internalType": "address",
          "name": "studentAddress",
          "type": "address"
        },
        {
          "internalType": "address",
          "name": "institutionAddress",
          "type": "address"
        },
        {
          "internalType": "uint256",
          "name": "issueTimestamp",
          "type": "uint256"
        }
      ],
      "stateMutability": "view",
      "type": "function"
    },
    {
      "inputs": [
        {
          "internalType": "address",
          "name": "_studentAddress",
          "type": "address"
        },
        {
          "internalType": "string",
          "name": "_title",
          "type": "string"
        },
        {
          "internalType": "string",
          "name": "_description",
          "type": "string"
        },
        {
          "internalType": "string",
          "name": "_ipfsCid",
          "type": "string"
        }
      ],
      "name": "issueCertificate",
      "outputs": [],
      "stateMutability": "nonpayable",
      "type": "function"
    },
    {
      "inputs": [],
      "name": "owner",
      "outputs": [
        {
          "internalType": "address",
          "name": "",
          "type": "address"
        }
      ],
      "stateMutability": "view",
      "type": "function"
    }
  ],
  "bytecode": "0x608060405234801561001057600080fd5b50336000806101000a81548173ffffffffffffffffffffffffffffffffffffffff021916908373ffffffffffffffffffffffffffffffffffffffff160217905550610b84806100606000396000f3fe608060405234801561001057600080fd5b50600436106100415760003560e01c8063663b3e22146100465780638da5cb5b1461007c5780638eb933ac1461009a575b600080fd5b610060600480360381019061005b9190610745565b6100b6565b6040516100739796959493929190610888565b60405180910390f35b6100846102d0565b604051610091919061082b565b60405180910390f35b6100b460048036038101906100af919061069a565b6102f4565b005b60026020528060005260406000206000915090508060000154908060010180546100df90610a07565b80601f016020809104026020016040519081016040528092919081815260200182805461010b90610a07565b80156101585780601f1061012d57610100808354040283529160200191610158565b820191906000526020600020905b81548152906001019060200180831161013b57829003601f168201915b50505050509080600201805461016d90610a07565b80601f016020809104026020016040519081016040528092919081815260200182805461019990610a07565b80156101e65780601f106101bb576101008083540402835291602001916101e6565b820191906000526020600020905b8154815290600101906020018083116101c957829003601f168201915b5050505050908060030180546101fb90610a07565b80601f016020809104026020016040519081016040528092919081815260200182805461022790610a07565b80156102745780601f1061024957610100808354040283529160200191610274565b820191906000526020600020905b81548152906001019060200180831161025757829003601f168201915b5050505050908060040160009054906101000a900473ffffffffffffffffffffffffffffffffffffffff16908060050160009054906101000a900473ffffffffffffffffffffffffffffffffffffffff16908060060154905087565b60008054906101000a900473ffffffffffffffffffffffffffffffffffffffff1681565b60008054906101000a900473ffffffffffffffffffffffffffffffffffffffff1673ffffffffffffffffffffffffffffffffffffffff163373ffffffffffffffffffffffffffffffffffffffff1614610382576040517f08c379a000000000000000000000000000000000000000000000000000000000815260040161037990610868565b60405180910390fd5b6001600081548092919061039590610a39565b9190505550600060015490506040518060e001604052808281526020018581526020018481526020018381526020018673ffffffffffffffffffffffffffffffffffffffff1681526020013373ffffffffffffffffffffffffffffffffffffffff1681526020014281525060026000838152602001908152602001600020600082015181600001556020820151816001019080519060200190610439929190610565565b506040820151816002019080519060200190610456929190610565565b506060820151816003019080519060200190610473929190610565565b5060808201518160040160006101000a81548173ffffffffffffffffffffffffffffffffffffffff021916908373ffffffffffffffffffffffffffffffffffffffff16021790555060a08201518160050160006101000a81548173ffffffffffffffffffffffffffffffffffffffff021916908373ffffffffffffffffffffffffffffffffffffffff16021790555060c082015181600601559050508473ffffffffffffffffffffffffffffffffffffffff16817fb7ff6cbe8f0282bf405f9ce3210be62c5620d39139a49186436e3f0fcc6a315a846040516105569190610846565b60405180910390a35050505050565b82805461057190610a07565b90600052602060002090601f01602090048101928261059357600085556105da565b82601f106105ac57805160ff19168380011785556105da565b828001600101855582156105da579182015b828111156105d95782518255916020019190600101906105be565b5b5090506105e791906105eb565b5090565b5b808211156106045760008160009055506001016105ec565b5090565b600061061b6106168461093d565b61090c565b90508281526020810184848401111561063357600080fd5b61063e8482856109c5565b509392505050565b60008135905061065581610b20565b92915050565b600082601f83011261066c57600080fd5b813561067c848260208601610608565b91505092915050565b60008135905061069481610b37565b92915050565b600080600080608085870312156106b057600080fd5b60006106be87828801610646565b945050602085013567ffffffffffffffff8111156106db57600080fd5b6106e78782880161065b565b935050604085013567ffffffffffffffff81111561070457600080fd5b6107108782880161065b565b925050606085013567ffffffffffffffff81111561072d57600080fd5b6107398782880161065b565b91505092959194509250565b60006020828403121561075757600080fd5b600061076584828501610685565b91505092915050565b61077781610989565b82525050565b60006107888261096d565b6107928185610978565b93506107a28185602086016109d4565b6107ab81610b0f565b840191505092915050565b60006107c3602583610978565b91507f4f6e6c7920746865206f776e65722063616e206973737565206365727469666960008301527f63617465730000000000000000000000000000000000000000000000000000006020830152604082019050919050565b610825816109bb565b82525050565b6000602082019050610840600083018461076e565b92915050565b60006020820190508181036000830152610860818461077d565b905092915050565b60006020820190508181036000830152610881816107b6565b9050919050565b600060e08201905061089d600083018a61081c565b81810360208301526108af818961077d565b905081810360408301526108c3818861077d565b905081810360608301526108d7818761077d565b90506108e6608083018661076e565b6108f360a083018561076e565b61090060c083018461081c565b98975050505050505050565b6000604051905081810181811067ffffffffffffffff8211171561093357610932610ae0565b5b8060405250919050565b600067ffffffffffffffff82111561095857610957610ae0565b5b601f19601f8301169050602081019050919050565b600081519050919050565b600082825260208201905092915050565b60006109948261099b565b9050919050565b600073ffffffffffffffffffffffffffffffffffffffff82169050919050565b6000819050919050565b82818337600083830152505050565b60005b838110156109f25780820151818401526020810190506109d7565b83811115610a01576000848401525b50505050565b60006002820490506001821680610a1f57607f821691505b60208210811415610a3357610a32610ab1565b5b50919050565b6000610a44826109bb565b91507fffffffffffffffffffffffffffffffffffffffffffffffffffffffffffffffff821415610a7757610a76610a82565b5b600182019050919050565b7f4e487b7100000000000000000000000000000000000000000000000000000000600052601160045260246000fd5b7f4e487b7100000000000000000000000000000000000000000000000000000000600052602260045260246000fd5b7f4e487b7100000000000000000000000000000000000000000000000000000000600052604160045260246000fd5b6000601f19601f8301169050919050565b610b2981610989565b8114610b3457600080fd5b50565b610b40816109bb565b8114610b4b57600080fd5b5056fea2646970667358221220b049206f475ba5e53fa256d5e3db5979025777fd1c5c35f180a3e73db0da4c6364736f6c63430008000033",
  "linkReferences": {},
  "deployedLinkReferences": {}
}